:020000040000FA
:020000000428D2
:040002000034003492
:080008008601C00183160313F9
:100010000730810083120313831686010F30870097
:10002000831283160313850183120313A001860133
:10003000D421D421F9216B21A92107080F390F3AC6
:1000400003191D28A820DA20CB20DA200330B900BC
:100050000330BA00BB01BE01BF0107080F390F3AD8
:10006000A1000030A200A10C031C442822086A2031
:10007000E2202208EF203A08031D4428FC203E1805
:100080005428B90B49284F28A20A221D332886205C
:100090002D283F08033EBA000030BB002D28532115
:1000A000BF01BE01B9010428BF0A14303F02031C7E
:1000B0005E287421BF01BE01B9010428DA20DA20CC
:1000C000A921DA20DA20A820CB20DA20BE030330D1
:1000D000B900492882076F2875287A2880280614D5
:1000E0000130A020BA03C001080086140230A0200D
:1000F000BA03080006150430A020BA03C0010800A6
:1001000086150830A020BA03C0010800831203132B
:100110000B1D08000B11C00A31304002031C0800FF
:10012000FC209720C001B90B49284F2808002D302A
:1001300084000430A6008001840AA60B9B280800D6
:10014000BC003B082D3E84003C088000BB0A080030
:100150000108553EF000F01BAE28F0090108031914
:10016000053EF0003F08033EF30027308400BD2029
:100170008000840AF30BB7280800F00D031CC22886
:100180008D30F00670080339C6200800820701345C
:100190000234043408343F08033EA60027308400AC
:1001A00000088600DA20DA208601DA20840AA60B0D
:1001B000D0280800FF30B600B700B60BDD28B70B1B
:1001C000DD2808000730A300FF30A400FF30A500A1
:1001D000A50BE828A40BE628A30BE4280800820757
:1001E000F428F628F828FA280610080086100800D7
:1001F00006110800861108003F08033EF30027306F
:10020000F4002D30F500740884000008F100750832
:10021000840000087102031D3D29F40AF50AF30B5E
:1002200003290130BE0017292D283D210800C021D7
:100230008030C3214330C6216F30C6216E30C621C5
:100240006730C6217230C6216130C6217430C621A4
:100250007530C6216C30C6216130C6217430C6218C
:100260006930C6216F30C6216E30C6217330C62179
:100270002130C6212130C6210800C0218030C32191
:100280005430C6217230C6217930C6212030C621B3
:100290006130C6216730C6216130C6216930C62170
:1002A0006E30C6210800C0218030C3214730C621EE
:1002B0006130C6216D30C6216530C6212030C6218F
:1002C0004F30C6217630C6216530C6217230C62136
:1002D0002130C62108000330BD007421DA20C0217E
:1002E000DA20BD0B6D2908008030C3215030C621B3
:1002F0007230C6216530C6217330C6217330C621E5
:100300002030C6216130C6216E30C6217930C62129
:100310002030C6216230C6217530C6217430C62116
:100320007430C6216F30C6216E30C621C030C32163
:100330007430C6216F30C6212030C6217330C621EB
:100340007430C6216130C6217230C6217430C62196
:100350000800C0218030C3214C30C6214530C62161
:100360005630C6214530C6214C30C6212030C6212A
:100370003F08BE21C6212130C6210800313E0800B9
:100380000130C3210800F412E6210800F416E6212A
:100390000800FF30B600B60BCB290800F930F0009A
:1003A0000000F00BD0290800F100CE21F10BD52977
:1003B00008000516CE21CE21CE21CE21CE21051258
:1003C000CE21CE21CE21CE21CE210800F500F0395C
:1003D000F200F20E72088500F41A8516D921CE219A
:1003E00075080F3985018500F41A8516D921CE21AB
:1003F00008006430D4210F30F40083160313850104
:100400008312031385018316031306309F008312A2
:10041000031303308500D9210530D421D921CE2101
:10042000D9210510D9212830E6210830E6210130F4
:10043000E6210630E6218030E6210C30E621080076
:02400E00F13F80
:00000001FF
